S0190000756C74696D657465724669726D776172652E73726563F3
S214400000E8340020990640009506400095064000DA
S214400010950640009506400095064000000000000A
S21440002000000000000000000000000095064000B0
S21440003095064000000000009506400095064000EA
S21440004095064000950640009506400095064000FF
S21440005095064000950640009506400000000000CA
S214400060950640009506400000000000A1014000B3
S214400070B50140000000000095064000950640008F
S2144000800000000000000000950640009506400075
S21440009095064000950640009506400095064000AF
S2144000A09506400095064000000000000000000055
S2144000B0000000009506400095064000950640006A
S2144000C095064000950640009506400010B5054C44
S2144000D0237833B9044B13B10448AFF300800123AF
S2144000E0237010BD2C040020000000002C094000A6
S2144000F00C4B43B10C480D4910B5AFF300800C488B
S214400100036823B910BD0A48036833B97047094BE2
S214400110002BF7D0BDE810401847064B002BF5D013
S214400120184700BF000000002C09400030040020A3
S2144001302C094000000000002DE9F84381460F4698
S214400140124B984705464846114B9847054013D0F2
S214400150104C04F1600603E0B4420DD010345DB19B
S2144001602068B842F8D161682942F5D0E3689847DC
S214400170636825EA0305EFE7074B1B6823B1074B87
S2144001801B680BB148469847BDE8F883F904400021
S214400190FD04400048040020BC040020B8040020B1
S2144001A008B50B210148024B984708BD000E0E408B
S2144001B03901400008B50C210148024B984708BD5C
S2144001C000100E40390140002A4B994249D8A3F509
S2144001D07A5399422BD910B4274CA4FB0234A40B73
S2144001E0043C264B0B449B00B2FBF3F2043AFF2C34
S2144001F039D9002101316408FF2C0DD90729F9D1DE
S21440020013029BB2090401F4E0210B43E4B22343FA
S2144002100361002010BC7047FF2AF1D90629EFD8A9
S21440022001315208FF2AEBD90629F9D9E8E74900F7
S214400230B2FBF1F2043AFF2A11D9002301335208E7
S214400240FF2A01D9072BF9D1110289B21B0403F406
S214400250E0230B43D2B21A430261002070470023CA
S214400260F2E701207047FF2A88BF0021D8D8002136
S214400270C6E700BF801A0600F11976050012FD3F5A
S21440028038B504460D464FF0FF338362036A802339
S2144002900360036B0823036020230360042303608A
S2144002A00A684968054B9847012814BF002001207A
S2144002B06B7A012B04BF4023236038BDC901400040
S2144002C00A4659B103780129C4BF417841EA03235D
S2144002D0022A04DD827842EA032300E0002318461F
S2144002E070470000F8B5CC68002C4FD00B4605464A
S2144002F08E68002068604A68120202F4407242F437
S2144003008052097C090401F4FE010A436A60E860F1
S21440031059681846224B9847E860012C0FD00123B5
S2144003202B6000202B6A13F4807F36D147F22F5182
S21440033047F230574FF0010E4FF0020C19E00323FE
S2144003402B600120EEE70A4670460CE008B9C5F877
S21440035000C013F0020FF6D070462B6B3370013C92
S21440036001363A4664B12B6A13F4807F11D1511E90
S2144003708AB1012CEAD013F0020FEED10A46F1E71B
S2144003802B6A13F0010FFBD02B6A00E001242046B5
S214400390F8BD0524FBE70924F9E70524F7E700BF85
S2144003A0C10240004FF400434360704710B584B02C
S2144003B04FF0006103200F4CA0474FF0006104202F
S2144003C0A04713200C4B98470C4B01930C4B0293C1
S2144003D001A90C480C4B98470C4B4FF40022C3F82D
S2144003E08020C3F88021002183F813131A6004B0DC
S2144003F010BD00BF0105400021064000000E270743
S214400400801A0600008001408102400000E100E0C2
S2144004104264B1F1C05F39D013D8B1F1006F25D036
S214400420B1F1805F0AD1036F13430367436F416F97
S2144004300B4023EA02034367426070470029FBD122
S2144004407047B1F1205F20D009D8B1F1005FF3D1F9
S214400450036F13430367436F13434367ECE7B1F1FE
S214400460405F12D0B1F1605F0FD0E5E710B4016F86
S214400470046FD34321401C4619400167436F416FC8
S2144004800B4023404367426010BC7047036F016FC8
S2144004900B4023EA02030367436F13434367CBE7EC
S2144004A0416412F0010F14BF4166016612F00A0F54
S2144004B014BF0162416212F0020F07D112F0080F1A
S2144004C018BFC0F88410416101607047C0F88010C2
S2144004D0F9E710B4019C416444B9016643B1016533
S2144004E042B941630161016010BC70474166F5E75F
S2144004F04165F5E70163F5E7C06C7047806C70476F
S21440050070B582B00D46430903F5001303F2077336
S2144005105C0201F0F043B3F1005F53D00AD8B3F168
S214400520805F2DD0B3F1C05F3BD0B3F1006F15D0E4
S214400530002023E0B3F1405F55D0B3F1605F52D066
S214400540B3F1205FF4D100F01F0101262A4606FAD7
S21440055001F120462F4B984730460FE000F01F0031
S2144005600126864032464FF0006120462A4B984787
S21440057015F0010F14BF66662666012002B070BDF6
S21440058000F01F000126864032464FF0805120463C
S214400590214B984715F0010F14BF6666266601206A
S2144005A0ECE700F01F000126864032464FF0C0516F
S2144005B02046194B984715F0010F14BF666626660D
S2144005C00120DBE700F01F000126864032464FF050
S2144005D000512046104B984715F0010F14BF666631
S2144005E026660120CAE705F0605200F01F0101268A
S2144005F005EA06030093C5F38003B2F1605F14BFBB
S2144006000022012206FA01F12046044CA04730465B
S214400610B4E700BFA104400011044000D3044000EA
S21440062022281ED81F280CD8114B9A6901238340D4
S214400630934318D0012303FA00F00D4B18610020B5
S214400640704720380A4BD3F8082101238340934350
S2144006500BD0012303FA00F0054BC3F8000100203D
S214400660704701207047002070470020704700BF49
S21440067000040E4010B50B20034CA0470C20A047AA
S2144006800248034B984710BD2106400050140E40C8
S214400690A5034000FEE7000008B5214B214A9A42D8
S2144006A028D9214B1E4A9A420CD2013B9B1A23F072
S2144006B00303043313441B4951F8040B42F8040B5C
S2144006C09A42F9D100BF194B194A9A420AD2013BC5
S2144006D09B1A23F0030304331344002142F8041BFF
S2144006E09A42FBD1134B144A9A60144B9847144BCA
S2144006F09847FEE70A4B0B4A9A42E3D20A4B084811
S214400700181A1146043A02440028DBD0C1F104010D
S21440071052F8040943F8040DCA42F9D1D2E700BFA3
S214400720000000202C0940002C040020E404002097
S2144007302C04002000ED00E000004000950740003B
S2144007404507400070B586B00D4B98470D4B80224C
S2144007501A61C3F8A0200C4B984700240B4E0C4D52
S21440076000940194059401230293CDF80CD0022303
S214400770049376238DF8143001A93046A847EFE756
S21440078075064000000E0E40AD034000008001405C
S214400790E502400070B50F4E0F4D761BB61018BFE1
S2144007A0002405D0013455F8043B9847A642F9D1B9
S2144007B00A4E0B4D761B00F0A7F8B61018BF002463
S2144007C006D0013455F8043B9847A642F9D170BD8F
S2144007D070BD00BF14094000140940001C094000C9
S2144007E014094000024B13B1024800F005B87047A8
S2144007F00000000005084000002301461A4618463F
S21440080000F01EB838B50A4C0A4D641BA4100AD036
S21440081004F18043013B05EB8305013C55F8043960
S2144008209847002CF9D1BDE8384000F077B800BFB3
S2144008302C09400028094000704700BF704700BFA1
S2144008402DE9F8432C4D0646286898460F469146B3
S214400850FFF7F2FF294B1C68D4F84831002B3ED0F6
S2144008605A681F2A1CDC02F1010E76B103EB8201A6
S2144008700124C1F88890D3F8880194402043022E82
S214400880C3F88801C1F8088123D00232C3F804E0D7
S214400890286843F82270FFF7D1FF0020BDE8F883B0
S2144008A0174B0BB34FF4C870AFF300800346D8B174
S2144008B0D4F848210260002141600A46C4F8480145
S2144008C04FF0010EC0F88811C0F88C11002EDCD015
S2144008D0CCE7D3F88C110C43C3F88C41D5E704F52C
S2144008E0A673C4F84831BBE72868FFF7A7FF4FF068
S2144008F0FF30BDE8F88300BF28040020040940000C
S2144009000000000000000020F8B500BFF8BC08BC9E
S2144009109E467047E5074000F1004000F8B500BF2E
S210400920F8BC08BC9E467047CD00400066
S21440092C00000000EC02002054030020BC03002012
S21440093C0000000000000000000000000000000066
S21440094C0000000000000000000000000000000056
S21440095C0000000000000000000000000000000046
S21440096C0000000000000000000000000000000036
S21440097C0000000000000000000000000000000026
S21440098C0000000000000000000000000000000016
S21440099C0000000000000000000000000000000006
S2144009AC00000000000000000000000000000000F6
S2144009BC00000000000000000000000000000000E6
S2144009CC00000000000000000100000000000000D5
S2144009DC0E33CDAB34126DE6ECDE05000B0000009A
S2144009EC00000000000000000000000000000000B6
S2144009FC00000000000000000000000000000000A6
S214400A0C0000000000000000000000000000000095
S214400A1C0000000000000000000000000000000085
S210400D4C0000000000000000C004002072
S8044006991C
